{
  "_format": "hh-sol-artifact-1",
  "contractName": "wavePortal",
  "sourceName": "contracts/wavePortal.sol",
  "abi": [
    {
      "inputs": [],
      "stateMutability": "payable",
      "type": "constructor"
    },
    {
      "anonymous": false,
      "inputs": [
        {
          "indexed": true,
          "internalType": "address",
          "name": "from",
          "type": "address"
        },
        {
          "indexed": false,
          "internalType": "string",
          "name": "message",
          "type": "string"
        },
        {
          "indexed": false,
          "internalType": "uint256",
          "name": "timestamp",
          "type": "uint256"
        }
      ],
      "name": "NewWave",
      "type": "event"
    },
    {
      "inputs": [],
      "name": "getAllWaves",
      "outputs": [
        {
          "components": [
            {
              "internalType": "address",
              "name": "visitor",
              "type": "address"
            },
            {
              "internalType": "string",
              "name": "message",
              "type": "string"
            },
            {
              "internalType": "uint256",
              "name": "timestamp",
              "type": "uint256"
            }
          ],
          "internalType": "struct wavePortal.Wave[]",
          "name": "",
          "type": "tuple[]"
        }
      ],
      "stateMutability": "view",
      "type": "function"
    },
    {
      "inputs": [],
      "name": "getTotWaves",
      "outputs": [
        {
          "internalType": "uint256",
          "name": "",
          "type": "uint256"
        }
      ],
      "stateMutability": "view",
      "type": "function"
    },
    {
      "inputs": [
        {
          "internalType": "address",
          "name": "",
          "type": "address"
        }
      ],
      "name": "lastWavedAt",
      "outputs": [
        {
          "internalType": "uint256",
          "name": "",
          "type": "uint256"
        }
      ],
      "stateMutability": "view",
      "type": "function"
    },
    {
      "inputs": [
        {
          "internalType": "string",
          "name": "_message",
          "type": "string"
        }
      ],
      "name": "wave",
      "outputs": [],
      "stateMutability": "nonpayable",
      "type": "function"
    }
  ],
  "bytecode": "0x60806040526200004f6040518060400160405280601381526020017f57656c636f6d6520746f204554482064417070000000000000000000000000008152506200007760201b620006631760201c565b606444426200005f91906200017c565b6200006b9190620001e6565b600181905550620002dc565b62000117816040516024016200008e9190620002b8565b6040516020818303038152906040527f41304fac000000000000000000000000000000000000000000000000000000007bffffffffffffffffffffffffffffffffffffffffffffffffffffffff19166020820180517bffffffffffffffffffffffffffffffffffffffffffffffffffffffff83818316178352505050506200011a60201b60201c565b50565b60008151905060006a636f6e736f6c652e6c6f679050602083016000808483855afa5050505050565b6000819050919050565b7f4e487b7100000000000000000000000000000000000000000000000000000000600052601160045260246000fd5b6000620001898262000143565b9150620001968362000143565b9250828201905080821115620001b157620001b06200014d565b5b92915050565b7f4e487b7100000000000000000000000000000000000000000000000000000000600052601260045260246000fd5b6000620001f38262000143565b9150620002008362000143565b925082620002135762000212620001b7565b5b828206905092915050565b600081519050919050565b600082825260208201905092915050565b60005b838110156200025a5780820151818401526020810190506200023d565b60008484015250505050565b6000601f19601f8301169050919050565b600062000284826200021e565b62000290818562000229565b9350620002a28185602086016200023a565b620002ad8162000266565b840191505092915050565b60006020820190508181036000830152620002d4818462000277565b905092915050565b61147280620002ec6000396000f3fe608060405234801561001057600080fd5b506004361061004c5760003560e01c8063449d46c014610051578063a42a46631461006d578063a7d1fca51461009d578063bd43a908146100bb575b600080fd5b61006b60048036038101906100669190610a56565b6100d9565b005b61008760048036038101906100829190610afd565b6104af565b6040516100949190610b43565b60405180910390f35b6100a56104c7565b6040516100b29190610b43565b60405180910390f35b6100c3610512565b6040516100d09190610d0d565b60405180910390f35b42610384600360003373ffffffffffffffffffffffffffffffffffffffff1673ffffffffffffffffffffffffffffffffffffffff168152602001908152602001600020546101279190610d5e565b10610167576040517f08c379a000000000000000000000000000000000000000000000000000000000815260040161015e90610def565b60405180910390fd5b42600360003373ffffffffffffffffffffffffffffffffffffffff1673ffffffffffffffffffffffffffffffffffffffff168152602001908152602001600020819055506000808154809291906101bd90610e0f565b91905055506101e56040518060600160405280602e815260200161140f602e913933836106fc565b600260405180606001604052803373ffffffffffffffffffffffffffffffffffffffff16815260200183815260200142815250908060018154018082558091505060019003906000526020600020906003020160009091909190915060008201518160000160006101000a81548173ffffffffffffffffffffffffffffffffffffffff021916908373ffffffffffffffffffffffffffffffffffffffff160217905550602082015181600101908161029d9190611063565b50604082015181600201555050606460015442446102bb9190610d5e565b6102c59190610d5e565b6102cf9190611164565b6001819055506103166040518060400160405280601481526020017f72616e646f6d20232067656e6572617465643a2000000000000000000000000081525060015461079b565b6032600154116103605761035f6040518060400160405280601081526020017f5468652077696e6e65722069732025730000000000000000000000000000000081525033610837565b5b6000655af3107a40009050478111156103ae576040517f08c379a00000000000000000000000000000000000000000000000000000000081526004016103a590611207565b60405180910390fd5b60003373ffffffffffffffffffffffffffffffffffffffff16826040516103d490611258565b60006040518083038185875af1925050503d8060008114610411576040519150601f19603f3d011682016040523d82523d6000602084013e610416565b606091505b505090508061045a576040517f08c379a0000000000000000000000000000000000000000000000000000000008152600401610451906112df565b60405180910390fd5b3373ffffffffffffffffffffffffffffffffffffffff167f6728ef66814a55b797863bf8ffcd954b19cbca4ed4f0e6cf04c980705fd82c3684426040516104a2929190611338565b60405180910390a2505050565b60036020528060005260406000206000915090505481565b600061050a6040518060400160405280601381526020017f7765206861766520612025642077617665733a0000000000000000000000000081525060005461079b565b600054905090565b60606002805480602002602001604051908101604052809291908181526020016000905b8282101561065a57838290600052602060002090600302016040518060600160405290816000820160009054906101000a900473ffffffffffffffffffffffffffffffffffffffff1673ffffffffffffffffffffffffffffffffffffffff1673ffffffffffffffffffffffffffffffffffffffff1681526020016001820180546105bf90610e86565b80601f01602080910402602001604051908101604052809291908181526020018280546105eb90610e86565b80156106385780601f1061060d57610100808354040283529160200191610638565b820191906000526020600020905b81548152906001019060200180831161061b57829003601f168201915b5050505050815260200160028201548152505081526020019060010190610536565b50505050905090565b6106f9816040516024016106779190611368565b6040516020818303038152906040527f41304fac000000000000000000000000000000000000000000000000000000007bffffffffffffffffffffffffffffffffffffffffffffffffffffffff19166020820180517bffffffffffffffffffffffffffffffffffffffffffffffffffffffff83818316178352505050506108d3565b50565b61079683838360405160240161071493929190611399565b6040516020818303038152906040527fe0e9ad4f000000000000000000000000000000000000000000000000000000007bffffffffffffffffffffffffffffffffffffffffffffffffffffffff19166020820180517bffffffffffffffffffffffffffffffffffffffffffffffffffffffff83818316178352505050506108d3565b505050565b61083382826040516024016107b1929190611338565b6040516020818303038152906040527fb60e72cc000000000000000000000000000000000000000000000000000000007bffffffffffffffffffffffffffffffffffffffffffffffffffffffff19166020820180517bffffffffffffffffffffffffffffffffffffffffffffffffffffffff83818316178352505050506108d3565b5050565b6108cf828260405160240161084d9291906113de565b6040516020818303038152906040527f319af333000000000000000000000000000000000000000000000000000000007bffffffffffffffffffffffffffffffffffffffffffffffffffffffff19166020820180517bffffffffffffffffffffffffffffffffffffffffffffffffffffffff83818316178352505050506108d3565b5050565b60008151905060006a636f6e736f6c652e6c6f679050602083016000808483855afa5050505050565b6000604051905090565b600080fd5b600080fd5b600080fd5b600080fd5b6000601f19601f8301169050919050565b7f4e487b7100000000000000000000000000000000000000000000000000000000600052604160045260246000fd5b6109638261091a565b810181811067ffffffffffffffff821117156109825761098161092b565b5b80604052505050565b60006109956108fc565b90506109a1828261095a565b919050565b600067ffffffffffffffff8211156109c1576109c061092b565b5b6109ca8261091a565b9050602081019050919050565b82818337600083830152505050565b60006109f96109f4846109a6565b61098b565b905082815260208101848484011115610a1557610a14610915565b5b610a208482856109d7565b509392505050565b600082601f830112610a3d57610a3c610910565b5b8135610a4d8482602086016109e6565b91505092915050565b600060208284031215610a6c57610a6b610906565b5b600082013567ffffffffffffffff811115610a8a57610a8961090b565b5b610a9684828501610a28565b91505092915050565b600073ffffffffffffffffffffffffffffffffffffffff82169050919050565b6000610aca82610a9f565b9050919050565b610ada81610abf565b8114610ae557600080fd5b50565b600081359050610af781610ad1565b92915050565b600060208284031215610b1357610b12610906565b5b6000610b2184828501610ae8565b91505092915050565b6000819050919050565b610b3d81610b2a565b82525050565b6000602082019050610b586000830184610b34565b92915050565b600081519050919050565b600082825260208201905092915050565b6000819050602082019050919050565b610b9381610abf565b82525050565b600081519050919050565b600082825260208201905092915050565b60005b83811015610bd3578082015181840152602081019050610bb8565b60008484015250505050565b6000610bea82610b99565b610bf48185610ba4565b9350610c04818560208601610bb5565b610c0d8161091a565b840191505092915050565b610c2181610b2a565b82525050565b6000606083016000830151610c3f6000860182610b8a565b5060208301518482036020860152610c578282610bdf565b9150506040830151610c6c6040860182610c18565b508091505092915050565b6000610c838383610c27565b905092915050565b6000602082019050919050565b6000610ca382610b5e565b610cad8185610b69565b935083602082028501610cbf85610b7a565b8060005b85811015610cfb5784840389528151610cdc8582610c77565b9450610ce783610c8b565b925060208a01995050600181019050610cc3565b50829750879550505050505092915050565b60006020820190508181036000830152610d278184610c98565b905092915050565b7f4e487b7100000000000000000000000000000000000000000000000000000000600052601160045260246000fd5b6000610d6982610b2a565b9150610d7483610b2a565b9250828201905080821115610d8c57610d8b610d2f565b5b92915050565b600082825260208201905092915050565b7f576169742031356d000000000000000000000000000000000000000000000000600082015250565b6000610dd9600883610d92565b9150610de482610da3565b602082019050919050565b60006020820190508181036000830152610e0881610dcc565b9050919050565b6000610e1a82610b2a565b91507fffffffffffffffffffffffffffffffffffffffffffffffffffffffffffffffff8203610e4c57610e4b610d2f565b5b600182019050919050565b7f4e487b7100000000000000000000000000000000000000000000000000000000600052602260045260246000fd5b60006002820490506001821680610e9e57607f821691505b602082108103610eb157610eb0610e57565b5b50919050565b60008190508160005260206000209050919050565b60006020601f8301049050919050565b600082821b905092915050565b600060088302610f197fffffffffffffffffffffffffffffffffffffffffffffffffffffffffffffffff82610edc565b610f238683610edc565b95508019841693508086168417925050509392505050565b6000819050919050565b6000610f60610f5b610f5684610b2a565b610f3b565b610b2a565b9050919050565b6000819050919050565b610f7a83610f45565b610f8e610f8682610f67565b848454610ee9565b825550505050565b600090565b610fa3610f96565b610fae818484610f71565b505050565b5b81811015610fd257610fc7600082610f9b565b600181019050610fb4565b5050565b601f82111561101757610fe881610eb7565b610ff184610ecc565b81016020851015611000578190505b61101461100c85610ecc565b830182610fb3565b50505b505050565b600082821c905092915050565b600061103a6000198460080261101c565b1980831691505092915050565b60006110538383611029565b9150826002028217905092915050565b61106c82610b99565b67ffffffffffffffff8111156110855761108461092b565b5b61108f8254610e86565b61109a828285610fd6565b600060209050601f8311600181146110cd57600084156110bb578287015190505b6110c58582611047565b86555061112d565b601f1984166110db86610eb7565b60005b82811015611103578489015182556001820191506020850194506020810190506110de565b86831015611120578489015161111c601f891682611029565b8355505b6001600288020188555050505b505050505050565b7f4e487b7100000000000000000000000000000000000000000000000000000000600052601260045260246000fd5b600061116f82610b2a565b915061117a83610b2a565b92508261118a57611189611135565b5b828206905092915050565b7f547279696e6720746f207769746864726177206d6f7265206d6f6e657920746860008201527f616e2074686520636f6e7472616374206861732e000000000000000000000000602082015250565b60006111f1603483610d92565b91506111fc82611195565b604082019050919050565b60006020820190508181036000830152611220816111e4565b9050919050565b600081905092915050565b50565b6000611242600083611227565b915061124d82611232565b600082019050919050565b600061126382611235565b9150819050919050565b7f4661696c656420746f207769746864726177206d6f6e65792066726f6d20636f60008201527f6e74726163742e00000000000000000000000000000000000000000000000000602082015250565b60006112c9602783610d92565b91506112d48261126d565b604082019050919050565b600060208201905081810360008301526112f8816112bc565b9050919050565b600061130a82610b99565b6113148185610d92565b9350611324818560208601610bb5565b61132d8161091a565b840191505092915050565b6000604082019050818103600083015261135281856112ff565b90506113616020830184610b34565b9392505050565b6000602082019050818103600083015261138281846112ff565b905092915050565b61139381610abf565b82525050565b600060608201905081810360008301526113b381866112ff565b90506113c2602083018561138a565b81810360408301526113d481846112ff565b9050949350505050565b600060408201905081810360008301526113f881856112ff565b9050611407602083018461138a565b939250505056fe576520676f74206120776176652066726f6d20257320616e6420776974682061206d6573736167652025733a2020a2646970667358221220c9876a140bfb9376e20da6ab0fe99f337d9c266958ab24633b0ff7416e76666364736f6c63430008110033",
  "linkReferences": {},
  "deployedLinkReferences": {}
}