{
  "_format": "hh-sol-artifact-1",
  "contractName": "wavePortal",
  "sourceName": "contracts/wavePortal.sol",
  "abi": [
    {
      "inputs": [],
      "stateMutability": "nonpayable",
      "type": "constructor"
    },
    {
      "anonymous": false,
      "inputs": [
        {
          "indexed": true,
          "internalType": "address",
          "name": "from",
          "type": "address"
        },
        {
          "indexed": false,
          "internalType": "string",
          "name": "message",
          "type": "string"
        },
        {
          "indexed": false,
          "internalType": "uint256",
          "name": "timestamp",
          "type": "uint256"
        }
      ],
      "name": "NewWave",
      "type": "event"
    },
    {
      "inputs": [],
      "name": "getAllWaves",
      "outputs": [
        {
          "components": [
            {
              "internalType": "address",
              "name": "visitor",
              "type": "address"
            },
            {
              "internalType": "string",
              "name": "message",
              "type": "string"
            },
            {
              "internalType": "uint256",
              "name": "timestamp",
              "type": "uint256"
            }
          ],
          "internalType": "struct wavePortal.Wave[]",
          "name": "",
          "type": "tuple[]"
        }
      ],
      "stateMutability": "view",
      "type": "function"
    },
    {
      "inputs": [],
      "name": "getTotWaves",
      "outputs": [
        {
          "internalType": "uint256",
          "name": "",
          "type": "uint256"
        }
      ],
      "stateMutability": "view",
      "type": "function"
    },
    {
      "inputs": [
        {
          "internalType": "string",
          "name": "_message",
          "type": "string"
        }
      ],
      "name": "wave",
      "outputs": [],
      "stateMutability": "nonpayable",
      "type": "function"
    }
  ],
  "bytecode": "0x60806040523480156200001157600080fd5b506200005d6040518060400160405280601381526020017f57656c636f6d6520746f204554482064417070000000000000000000000000008152506200006360201b6200038c1760201c565b620001ed565b62000103816040516024016200007a9190620001c9565b6040516020818303038152906040527f41304fac000000000000000000000000000000000000000000000000000000007bffffffffffffffffffffffffffffffffffffffffffffffffffffffff19166020820180517bffffffffffffffffffffffffffffffffffffffffffffffffffffffff83818316178352505050506200010660201b60201c565b50565b60008151905060006a636f6e736f6c652e6c6f679050602083016000808483855afa5050505050565b600081519050919050565b600082825260208201905092915050565b60005b838110156200016b5780820151818401526020810190506200014e565b60008484015250505050565b6000601f19601f8301169050919050565b600062000195826200012f565b620001a181856200013a565b9350620001b38185602086016200014b565b620001be8162000177565b840191505092915050565b60006020820190508181036000830152620001e5818462000188565b905092915050565b610e0c80620001fd6000396000f3fe608060405234801561001057600080fd5b50600436106100415760003560e01c8063449d46c014610046578063a7d1fca514610062578063bd43a90814610080575b600080fd5b610060600480360381019061005b91906106e3565b61009e565b005b61006a6101f0565b6040516100779190610745565b60405180910390f35b61008861023b565b6040516100959190610941565b60405180910390f35b6000808154809291906100b090610992565b91905055506100d86040518060600160405280602e8152602001610da9602e91393383610425565b600160405180606001604052803373ffffffffffffffffffffffffffffffffffffffff16815260200183815260200142815250908060018154018082558091505060019003906000526020600020906003020160009091909190915060008201518160000160006101000a81548173ffffffffffffffffffffffffffffffffffffffff021916908373ffffffffffffffffffffffffffffffffffffffff16021790555060208201518160010190816101909190610be6565b506040820151816002015550503373ffffffffffffffffffffffffffffffffffffffff167f6728ef66814a55b797863bf8ffcd954b19cbca4ed4f0e6cf04c980705fd82c3682426040516101e5929190610d02565b60405180910390a250565b60006102336040518060400160405280601381526020017f7765206861766520612025642077617665733a000000000000000000000000008152506000546104c4565b600054905090565b60606001805480602002602001604051908101604052809291908181526020016000905b8282101561038357838290600052602060002090600302016040518060600160405290816000820160009054906101000a900473ffffffffffffffffffffffffffffffffffffffff1673ffffffffffffffffffffffffffffffffffffffff1673ffffffffffffffffffffffffffffffffffffffff1681526020016001820180546102e890610a09565b80601f016020809104026020016040519081016040528092919081815260200182805461031490610a09565b80156103615780601f1061033657610100808354040283529160200191610361565b820191906000526020600020905b81548152906001019060200180831161034457829003601f168201915b505050505081526020016002820154815250508152602001906001019061025f565b50505050905090565b610422816040516024016103a09190610d32565b6040516020818303038152906040527f41304fac000000000000000000000000000000000000000000000000000000007bffffffffffffffffffffffffffffffffffffffffffffffffffffffff19166020820180517bffffffffffffffffffffffffffffffffffffffffffffffffffffffff8381831617835250505050610560565b50565b6104bf83838360405160240161043d93929190610d63565b6040516020818303038152906040527fe0e9ad4f000000000000000000000000000000000000000000000000000000007bffffffffffffffffffffffffffffffffffffffffffffffffffffffff19166020820180517bffffffffffffffffffffffffffffffffffffffffffffffffffffffff8381831617835250505050610560565b505050565b61055c82826040516024016104da929190610d02565b6040516020818303038152906040527fb60e72cc000000000000000000000000000000000000000000000000000000007bffffffffffffffffffffffffffffffffffffffffffffffffffffffff19166020820180517bffffffffffffffffffffffffffffffffffffffffffffffffffffffff8381831617835250505050610560565b5050565b60008151905060006a636f6e736f6c652e6c6f679050602083016000808483855afa5050505050565b6000604051905090565b600080fd5b600080fd5b600080fd5b600080fd5b6000601f19601f8301169050919050565b7f4e487b7100000000000000000000000000000000000000000000000000000000600052604160045260246000fd5b6105f0826105a7565b810181811067ffffffffffffffff8211171561060f5761060e6105b8565b5b80604052505050565b6000610622610589565b905061062e82826105e7565b919050565b600067ffffffffffffffff82111561064e5761064d6105b8565b5b610657826105a7565b9050602081019050919050565b82818337600083830152505050565b600061068661068184610633565b610618565b9050828152602081018484840111156106a2576106a16105a2565b5b6106ad848285610664565b509392505050565b600082601f8301126106ca576106c961059d565b5b81356106da848260208601610673565b91505092915050565b6000602082840312156106f9576106f8610593565b5b600082013567ffffffffffffffff81111561071757610716610598565b5b610723848285016106b5565b91505092915050565b6000819050919050565b61073f8161072c565b82525050565b600060208201905061075a6000830184610736565b92915050565b600081519050919050565b600082825260208201905092915050565b6000819050602082019050919050565b600073ffffffffffffffffffffffffffffffffffffffff82169050919050565b60006107b78261078c565b9050919050565b6107c7816107ac565b82525050565b600081519050919050565b600082825260208201905092915050565b60005b838110156108075780820151818401526020810190506107ec565b60008484015250505050565b600061081e826107cd565b61082881856107d8565b93506108388185602086016107e9565b610841816105a7565b840191505092915050565b6108558161072c565b82525050565b600060608301600083015161087360008601826107be565b506020830151848203602086015261088b8282610813565b91505060408301516108a0604086018261084c565b508091505092915050565b60006108b7838361085b565b905092915050565b6000602082019050919050565b60006108d782610760565b6108e1818561076b565b9350836020820285016108f38561077c565b8060005b8581101561092f578484038952815161091085826108ab565b945061091b836108bf565b925060208a019950506001810190506108f7565b50829750879550505050505092915050565b6000602082019050818103600083015261095b81846108cc565b905092915050565b7f4e487b7100000000000000000000000000000000000000000000000000000000600052601160045260246000fd5b600061099d8261072c565b91507fffffffffffffffffffffffffffffffffffffffffffffffffffffffffffffffff82036109cf576109ce610963565b5b600182019050919050565b7f4e487b7100000000000000000000000000000000000000000000000000000000600052602260045260246000fd5b60006002820490506001821680610a2157607f821691505b602082108103610a3457610a336109da565b5b50919050565b60008190508160005260206000209050919050565b60006020601f8301049050919050565b600082821b905092915050565b600060088302610a9c7fffffffffffffffffffffffffffffffffffffffffffffffffffffffffffffffff82610a5f565b610aa68683610a5f565b95508019841693508086168417925050509392505050565b6000819050919050565b6000610ae3610ade610ad98461072c565b610abe565b61072c565b9050919050565b6000819050919050565b610afd83610ac8565b610b11610b0982610aea565b848454610a6c565b825550505050565b600090565b610b26610b19565b610b31818484610af4565b505050565b5b81811015610b5557610b4a600082610b1e565b600181019050610b37565b5050565b601f821115610b9a57610b6b81610a3a565b610b7484610a4f565b81016020851015610b83578190505b610b97610b8f85610a4f565b830182610b36565b50505b505050565b600082821c905092915050565b6000610bbd60001984600802610b9f565b1980831691505092915050565b6000610bd68383610bac565b9150826002028217905092915050565b610bef826107cd565b67ffffffffffffffff811115610c0857610c076105b8565b5b610c128254610a09565b610c1d828285610b59565b600060209050601f831160018114610c505760008415610c3e578287015190505b610c488582610bca565b865550610cb0565b601f198416610c5e86610a3a565b60005b82811015610c8657848901518255600182019150602085019450602081019050610c61565b86831015610ca35784890151610c9f601f891682610bac565b8355505b6001600288020188555050505b505050505050565b600082825260208201905092915050565b6000610cd4826107cd565b610cde8185610cb8565b9350610cee8185602086016107e9565b610cf7816105a7565b840191505092915050565b60006040820190508181036000830152610d1c8185610cc9565b9050610d2b6020830184610736565b9392505050565b60006020820190508181036000830152610d4c8184610cc9565b905092915050565b610d5d816107ac565b82525050565b60006060820190508181036000830152610d7d8186610cc9565b9050610d8c6020830185610d54565b8181036040830152610d9e8184610cc9565b905094935050505056fe576520676f74206120776176652066726f6d20257320616e6420776974682061206d6573736167652025733a2020a2646970667358221220615c3e6586bac0ee58360ff594b6139f93e06e5f2c334ff86b6530a5f1a3511064736f6c63430008110033",
  "linkReferences": {},
  "deployedLinkReferences": {}
}